:100000000C9469000C94210C0C94210C0C94210C80
:100010000C94210C0C94210C0C94210C0C94210CAC
:100020000C940A070C94210C0C94210C0C94210CB8
:100030000C94210C0C94210C0C94210C0C94210C8C
:100040000C94210C0C94210C0C94210C0C94520453
:100050000C94210C0C94210C0C94210C0C94210C6C
:100060000C94FE080C94210C0C94210C0C94210C83
:100070000C94210C0C94210C0C94190C0C94210C54
:100080000C94210C0C94210C0C94210C0C946208FF
:100090000C94210C0C94210C0C94210C0C94210C2C
:1000A0000C94210C0C94210C400040028040024032
:1000B0002800186640284036804036404300188C9F
:1000C0004043405D80405D405F001899405F406163
:1000D0008000809101108F7C8060806898ED94BFD3
:1000E0008093011011241FBECFEFCDBFDFE7DEBF2D
:1000F000E8EAF0E040E019C0B791A7913791279165
:10010000079107FD0EC097918791EF01F92FE82F16
:100110000BBF07900D92A217B307D9F7FE011BBEC4
:1001200004C01D92A217B307E1F7E13DF40721F7E0
:0C0130000E94E4070C94C90BF894FFCF68
:10013C004D617374657220737475757274206E6181
:10014C00617220307825583A2025750A004D61736C
:10015C00746572206F6E7476616E67742076616E52
:10016C0020307825583A2025750A004D6173746546
:10017C0072206765737461727400426569646520EE
:10018C00736C61766573206163746965663A204CA3
:07019C0045442061616E0083
:1001A300010CD40BDE0B640A71061E0C0E0CCA0A7A
:0201B300B20B8D
:1001B600AEE0B0E0E1EEF0E00C94080B4C016B0110
:1001C60019821A828FEF9FEF8B839C831D821E827A
:1001D6004F83588729873A87A12CB12CD6016D9079
:1001E6007C90F301EA0DFB1D808181110FC0D601C1
:1001F600ED93FC938081853209F0D3C13F01BFEFB7
:100206006B1A7B0AF6016082718219C0853279F316
:10021600B401082E000C990B0E94BE064FEFA41ADB
:10022600B40ADCCF8C32ACF08D32F9F489819A8134
:10023600816089839A833196D601ED93FC93D6012A
:10024600ED91FC9180818B3269F789819A81846076
:10025600F0CF803221F489819A818860EACF833297
:1002660051F489819A818061E4CF803321F48981B8
:100276009A818260DECFB701C6010E94B7098D83DD
:100286009E8397FF0BC029813A81B1E02B272983F2
:100296003A839195819591098D839E8389819A816F
:1002A60080FF03C08D7F89839A83D601ED91FC91EF
:1002B600119780818E3249F43196ED93FC93B70104
:1002C600C6010E94B7098B839C83C6010E94AA0AB5
:1002D600582ED601ED91FC918081082E000C990BC9
:1002E6000E94F90B893609F443C084F4833609F475
:1002F60002C134F4853209F427C18136E1F030C1F8
:100306008436B1F188360CF4D9C02AC1803709F495
:100316009AC03CF48E3609F4BCC08F3609F461C02D
:100326001FC1853709F440C0883709F476C0833782
:1003360009F016C1F3C0652D70E0A701CE010B963A
:100346000E940000892B09F426C1D601ED91FC918B
:100356001197CF0101968D939C932081AE01455F45
:100366005F4FBE016F5F7F4FC4010E94000010C146
:10037600652D70E0970141E050E0CE010B960E949A
:100386004B05892B09F407C1F601808191810196FD
:1003960080839183AE01455F5F4FBE016F5F7F4FE4
:1003A600C4010E94D904F4C0652D70E0970140E0B5
:1003B60050E0CE010B960E944B05892B09F4EBC049
:1003C600D6018D919C91119701968D939C93AE01C8
:1003D600455F5F4FBE016F5F7F4FC4010E949D075F
:1003E600D7C0652D70E0970140E050E0CE010B9636
:1003F6000E944B05892B09F4CEC0F60180819181BC
:10040600019680839183AE01455F5F4FBE016F5FAA
:100416007F4FC4010E941806BBC0652D70E097018E
:1004260040E050E0CE010B960E944B05892B09F463
:10043600B2C0D601ED91FC911197CF0101968D9333
:100446009C9320811CC0970140E050E060EF70E073
:10045600CE010B960E944B05892B09F49CC0F60130
:10046600808191810196808391838B859C85892BE0
:1004760029F420E030E04DE350E484C028E7AE01E3
:10048600455F5F4FBE016F5F7F4FC4010E94D90277
:100496007FC0A501400F511F652D70E09701CE0169
:1004A6000B960E940000892B09F475C0D6018D9128
:1004B6009C91119701968D939C9373C0652D70E066
:1004C600A701CE010B960E940000892B09F463C098
:1004D600D601ED91FC911197CF0101968D939C93D6
:1004E6002081AE01455F5F4FBE016F5F7F4FC40144
:1004F6000E9400004DC0B0E85B124DC0F60180813D
:100506009181019680839183D701ED91FC9111979A
:10051600CF0102968D939C93808120C0B0E85B1238
:100526003AC0F60180819181019680839183D7013B
:10053600ED91FC911197CF0102968D939C9340818A
:10054600518120E030E01EC0B0E85B1224C0F60105
:10055600208131812F5F3F4F208331838B870DC0F0
:1005660085E28B87D6016D927C9219821A821D8252
:100576001E828FEF9FEF8B839C8321E030E0AE01DC
:10058600455F5F4FBE016F5F7F4FC4010E943A0A0D
:100596008A0D9B1D07C0F60180819181019680839B
:0C05A6009183C5012E96EFE00C94510BE0
:1005B200AFE0B0E0EFEDF2E00C94050B1C016B0133
:1005C20049835A832B83FB018281938184809580A6
:1005D20000811181A680B78097FD02C00D7F02C005
:1005E20081E090E0E981FA814080518062807380ED
:1005F2009801207133272C833D83740104FF08C0C6
:10060200411451046104710419F032E0E31AF10853
:10061200F801E870FF27EE83FF8303FF03C0F1E0D8
:10062200EF1AF108F6010084F185E02D3197EE878B
:10063200FF87EA0DFB1D10829C012E193F092887B6
:100642003987C801827099278A879B87EB818E2F11
:10065200EE0F990B9C01215431092C873D872E8581
:100662003F852230310530F48C819D81892B09F040
:1006720042C05CC0411451046104710461F18E8571
:100682009F8501978E879F87C2018F7099278A3035
:10069200910514F4C09602C0895A9F4FEC85FD85DE
:1006A2007A9748F49C012062215631092A3131059A
:1006B20010F40E94F00BEE85FF85EA0DFB1D80838E
:1006C200F1E0EF1AF10884E0769467945794479426
:1006D2008A95D1F7C4CF888599858E0D9F1D1816EE
:1006E20019066CF21E141F040CF0BECFEA85FB85BE
:1006F200EF2B29F6B9CFE981FA8180819181A2811C
:10070200B381892B8A2B8B2B89F0EE85FF85EA0D2D
:10071200FB1D31972B8120838E859F8502978E87C3
:100722009F87FC01EA0DFB1D80E38083EE81FF8140
:10073200EF2B59F02E853F85215031092E873F87B7
:10074200F901EA0DFB1D80E28083F60140855185A7
:10075200415051092E853F85421B530BB9016A0D49
:100762007B1D9401C1010E9429089C01F101808135
:10077200918190FF06C0F6018281938182179307CF
:0C0782000CF4C9012F96E2E10C944E0B20
:10078E00CF93DF9380E094E030EAFC013483C0E441
:10079E00D4E01C82A0E6B4E014961C92149740EAB2
:1007AE0054E021E0FA012483FC013083188238E002
:1007BE003C93FA012083FC01108A118A128A138A53
:1007CE00148A158A168A178A188A198A1A8A1B8A0F
:1007DE001C8A1D8A1E8A1F8A50961C92509751960B
:1007EE001C92519752961C92529753961C92539765
:1007FE0054961C92549755961C92559756961C9249
:10080E00569757961C92FA01108A118A128A138AE9
:10081E00148A158A168A178AE0EEF5E0118611827F
:10082E001082148216821782108615821282128608
:10083E0088E29CE08093594090935A4089E29CE074
:10084E0080935740909358408AE29CE080935540A5
:10085E00909356408BE29CE080935340909354408B
:10086E008CE29CE080935140909352408DE29CE04C
:10087E0080934F40909350408EE29CE080934D4089
:10088E0090934E408FE29CE080934B4090934C406F
:06089E00DF91CF910895E7
:1008A4001F920F920FB60F9211240BB60F922F9333
:1008B4003F934F935F936F937F938F939F93AF93E4
:1008C400BF93CF93DF93EF93FF93809105098C71CE
:1008D40009F447C08091050982FD04C0809105098F
:1008E40083FF0AC0E8E2F0E486E0858783E084873A
:1008F4008CE0809305091DC080910709882359F075
:100904008091050984FF07C0E8E2F0E485E085876B
:1009140081E084870EC080910809882351F080917A
:10092400050984FF06C0E8E2F0E485E0858782E0FB
:100934008487C8E2D0E4ED85F0E0EE0FFF1FED55AB
:10094400FE470190F081E02D09958D878C858823E1
:10095400C9F0E0915B40F0915C40309799F00995C3
:1009640011C080910509807E69F0C8E2D0E4ED856C
:10097400F0E0EE0FFF1FED55FE470190F081E02DF2
:1009840009958D87FF91EF91DF91CF91BF91AF9141
:100994009F918F917F916F915F914F913F912F9193
:0E09A4000F900BBE0F900FBE0F901F90189576
:1009B200A2E0B0E0EFEDF4E00C94050B3C016B011A
:1009C200FB0122813381A480B5808081918189835A
:1009D2009A8386809780FA012080318042805380FA
:1009E200B201A10157FE07C044275527BA01421997
:1009F20053096409750937FD03C08D7F89839A8382
:100A0200950157FC05C0898182FD02C083FF02C0A7
:100A120021503109CE0101967C010AE010E0C601A5
:100A22000E94B30557FC03C0298122FF0AC0019727
:100A3200F401E80FF91F57FC02C02BE209C02DE2B6
:100A420007C023FF06C00197F401E80FF91F20E257
:100A5200208309811A81F60140855185415051094F
:100A6200481B590BB401680F791F9501C3010E94FD
:100A720029089C01F3018081918190FF06C0F60153
:100A820082819381821793070CF4C9012296E2E1D5
:040A92000C944E0B67
:100A9600CF93DF93DC01F90168387105F1F05CF45E
:100AA6006138710561F164387105A1F1603871052D
:100AB60009F051C02FC0603C710509F441C0603F88
:100AC6007105F1F1603A710509F045C0C081D18127
:100AD600CE0102968083918325C0C081D181CE014B
:100AE600029680839183452B39F04881042E000CB1
:100AF600550B660B770B1CC0488150E029C0C0819E
:100B0600D181CE01049680839183488159816A817F
:100B16007B810EC0C081D181CE01029680839183F4
:100B2600452BA1F048815981052E000C660B770BE9
:100B36004D935D936D937C93139781E090E00DC088
:100B4600C081D181CE0102968083918348815981EB
:100B560060E070E0EDCF80E090E0DF91CF91089506
:100B6600A0E0B0E0E9EBF5E00C94070BDC0128010E
:100B76001696AD90BC901797F701808191811296D9
:100B8600ED91FC9113971896CD91DC9119972197C9
:100B9600F7FF02C0E1E0F0E0CA0DDB1D1882690133
:100BA600A1E0B0E08F01021B130B4C01F2E08F2293
:100BB6009924052C000C66087708CE018A199B0932
:100BC600CA15DB0519F1411551056105710589F055
:100BD600CB01BA01A30192010E94880ACA01A62F7D
:100BE600B72F605D6A9341E0C41AD108A901BC0120
:100BF600E4CF98012C0D3D1D121613064CF31C1460
:100C06001D0434F48114910419F702C080E090E0C9
:100C1600AB2B31F4F701208131812F7E2083318384
:0A0C2600CDB7DEB7E0E10C94500BEF
:100C3000A2E0B0E0EEE1F6E00C94090B4C016B0190
:100C4000FB01228133816480758080819181898359
:100C50009A83A680B78037FD03C08D7F89839A83EE
:100C6000FA014081518162817381CE0101967C013C
:100C700008E010E09301C6010E94B305298124FF1A
:100C800006C00197F501E80FF91F20E320832981B1
:100C900023FF06C00197F501E80FF91F20E220832A
:100CA00009811A81F6014085518541505109481B3F
:100CB000590BB501680F791F9301C4010E942908DF
:100CC0009C01F4018081918190FF06C0F601828130
:100CD0009381821793070CF4C9012296EEE00C94DD
:020CE000520BB5
:100CE200CF93DF938091314090913240019731F45C
:100CF200E0E0F9E084818460848305C0E0E0F9E00B
:100D020084818B7F8483E8E2F0E481859285019778
:100D120081879287892BB1F0DF01C781D085E0E01E
:100D2200F9E08085888317968D919C91189701969A
:100D320017968D939C93189784818C7F826084830D
:100D420084E018C0A8E2B0E41796CD91DC91189720
:100D5200E0E0F9E08085888317968D919C91189741
:100D6200019617968D939C9318978481846084834F
:0A0D72000E94CA0ADF91CF91089594
:100D7C000F931F93CF93DF93DB01109719F48FEF31
:100D8C009FEF3DC02D913C91119730FF25C01696D9
:100D9C004D915C91179714962D913C911597421794
:100DAC00530778F41296ED91FC9113978083129669
:100DBC002D913C9113972F5F3F4F12962D933C939F
:100DCC00139716962D913C9117972F5F3F4F1696C0
:100DDC002D933C93179713C01C96ED91FC911D9786
:100DEC00309769F2EB01092F182F0995892B39F6E9
:100DFC008E819F8101968E839F83812F902FDF910F
:080E0C00CF911F910F91089591
:100E14001F920F920FB60F9211240BB60F922F93BD
:100E24003F934F935F936F937F938F939F93AF936E
:100E3400BF93EF93FF931B9B05C0E0915540F09146
:100E4400564009951A9B05C0E0915340F0915440D7
:100E540009951C9B05C0E0915140F09152400995C1
:100E64001D9B05C0E0914F40F091504009951F9B98
:100E740005C0E0914D40F0914E4009958FEF83B944
:100E8400FF91EF91BF91AF919F918F917F916F915E
:100E94005F914F913F912F910F900BBE0F900FBE1A
:060EA4000F901F9018954D
:100EAA0040E068ED80E690E00E94140C40E068EDB6
:100EBA0081E690E00E94140C40E068ED88E790E03B
:100ECA000E94140C4CE068ED88E690E00E94140C35
:100EDA0040E068ED89E690E00E94140C40E068ED7D
:100EEA0080E790E00E94140C40E068ED8CE790E007
:100EFA000E94140C40E068ED82E690E00E94140C17
:100F0A0040E068ED83E690E00E94140C40E068ED52
:100F1A0084E690E00E94140C40E068ED80E890E0DE
:100F2A000E94140CE0E6F0E0858181FFFDCF089570
:100F3A00A2E0B0E0E3EAF7E00C94090B5C016B0174
:100F4A00FB0122813381848095808081918189830C
:100F5A009A836680778037FD03C08D7F89839A8361
:100F6A00FA014081518162817381CE0101967C012F
:100F7A000AE010E09401C6010E94B30509811A81B2
:100F8A00F6014085518541505109481B590BB3015F
:100F9A00680F791F9401C5010E9429089C01F50177
:100FAA008081918190FF06C0F60182819381821728
:0E0FBA0093070CF4C9012296EEE00C94520B42
:100FC8000E94BE0B87E791E80E94E70B0F2EF6E61A
:100FD800EF2EF4E0FF2EF02DD8E005E614E014998A
:100FE8000DC06AE281E00E94100A2FEF80E792E0CC
:100FF800215080409040E1F700C0000081E00E944D
:10100800E509C82F82E00E94E50983E00E94E5090E
:10101800CC2329F3F701D083FFE72AE186E0F150DA
:1010280020408040E1F700C00000F801D083FFE7CE
:101038002AE186E0F15020408040E1F700C000003E
:0A10480086E891E80E94E70BCACF8A
:10105200A0E0B0E0EFE2F8E00C940B0B6C015B0156
:101062007A01E901480181E08822992400FD03C048
:101072004217530750F0A701B501C6010E94E80AC2
:10108200EC16FD0610F0C70117C08E010E191F09DC
:101092000115110541F0B60180E290E00E94BE0602
:1010A20001501109F5CF8114910429F4A701B5016A
:1010B200C6010E94E80ACE01CDB7DEB7ECE00C947F
:0210C200540BCD
:1010C4001F920F920FB60F9211240BB60F922F930B
:1010D4003F934F935F936F937F938F939F93AF93BC
:1010E400BF93EF93FF93B99B05C0E0915940F091F2
:1010F4005A400995B89B05C0E0915740F09158407B
:1011040009958FEF87BBFF91EF91BF91AF919F91AD
:101114008F917F916F915F914F913F912F910F909C
:0C1124000BBE0F900FBE0F901F9018958F
:10113000A2E8B0E0EEE9F8E00C940B0B5C014A0188
:1011400069837A83C12CD12CE981FA81808188233B
:10115000E9F07401860120E830E0AE014D5F5F4F99
:10116000BE016F5F7F4FC5010E94DB008C0D9D1D8E
:101170008C159D054CF48FE490E080930040909393
:1011800001408FEF9FEF03C06C01DECFC601CE5749
:08119000DF4FECE00C94540B5E
:101198000F931F93CF93DF938C010F5F1F4FFC01B9
:1011A80080816115710519F48FEF9FEF1EC0FB0157
:1011B80024853585232BC1F3EB01EC85FD85BE0124
:1011C800882339F00995892B79F7F80181918F01E6
:1011D800F4CF8AE0099521E030E0892B11F420E072
:1011E80030E088279927821B930BDF91CF911F91BD
:0411F8000F910895B6
:1011FC001F920F920FB60F9211240BB60F922F93D2
:10120C003F934F935F936F937F938F939F93AF9382
:10121C00BF93EF93FF937B9B05C0E0914B40F09104
:10122C004C4009958FEF8FB9FF91EF91BF91AF9122
:10123C009F918F917F916F915F914F913F912F91E2
:0E124C000F900BBE0F900FBE0F901F901895C5
:10125A00E0E4F8E08AE890E080879187158280ECE4
:10126A00868383E08783138614861686158685E22D
:10127A009CE0809347409093484086E29CE08093AC
:10128A0045409093464087E29CE080934340909388
:10129A0044401092494010924A40E0915D40F091DA
:0C12AA005E4088E190E480839183089509
:1012B600CF92DF92EF92FF920F931F93CF93DF931C
:1012C6006C017B018A010E947C0B811115C0C8E26A
:1012D600D0E481E08883C982DA821B86EF82F886B1
:1012E60009871A871B821C821D821E821C860E9409
:1012F600D40B8D8781E001C080E0DF91CF911F91F3
:0C1306000F91FF90EF90DF90CF900895C2
:10131200CF92DF92EF92FF920F931F93CF93DF93BF
:101322006C017B018A010E947C0B811115C0C8E20D
:10133200D0E481E08883C982DA821B86EB82FC8258
:101342000D831E831F82188619861A861C860E94A8
:10135200DE0B8D8781E001C080E0DF91CF911F918C
:0C1362000F91FF90EF90DF90CF90089566
:10136E00DC01ED91FC91119780818A3221F080E0B1
:10137E0090E03AE00EC03196ED93FC93DB01ED91D7
:10138E00FC911197CF0102968D939C938081918150
:10139E000895ED91FC911197208120532A3068F425
:1013AE00389FA001399F500D1124CA01820F911D43
:0C13BE003196ED93FC931197ECCF08954D
:1013CA001F93CF93DF930F92CDB7DEB7182F1982F1
:1013DA0041E050E0BE016F5F7F4F90E00E945B09E1
:1013EA000E947C0B8111FCCF89811F928F931F92DF
:1013FA001F9389E591E89F938F930E941E0B0F908C
:10140A000F900F900F900F900F9089810F90DF919E
:06141A00CF911F9108951F
:101420001F93CF93DF930F92CDB7DEB7182F698349
:1014300041E050E0BE016F5F7F4F90E00E9489095C
:101440000E947C0B8111FCCF89811F928F931F9288
:101450001F938CE391E89F938F930E941E0B0F9034
:101460000F900F900F900F900F900F90DF91CF91F2
:041470001F9108952B
:10147400A0E0B0E0E0E4FAE00C940D0B7C01FB0189
:10148400EA01C901A280B380C480D58000811181A2
:10149400209711F4C6E3D0E4009719F4CE010E941A
:1014A4008B0BB7FC04C0A816B90608F4C501960155
:1014B400AC01BE01C7010E942908CDB7DEB7EAE03E
:0414C4000C94560B23
:1014C80080912D4090912E40892B99F0E8E2F0E42C
:1014D80085819681019785839683A381B4818C91B8
:1014E800809308098381948101968383948383E0A0
:1014F800089580913340882321F01092334081E091
:0815080008950E94CA0A08952B
:10151000A1E21A2EAA1BBB1BFD010DC0AA1FBB1FF7
:10152000EE1FFF1FA217B307E407F50720F0A21B69
:10153000B30BE40BF50B661F771F881F991F1A94D6
:1015400069F760957095809590959B01AC01BD0100
:04155000CF0108952A
:10155400CF93DF93EC0190E0E92FF0E0EE0FFF1F53
:10156400EE5FFF4B8081811102C081810EC0A88192
:10157400B9812C91821305C091811196A883B983F6
:1015840001C09F5F9B3040F3892FDF91CF91089575
:10159400A0E0B9E014968C911497836014968C9310
:1015A4001497E8E2F0E410828FEF90E08183928355
:1015B4001382148217821086158680EC15968C93FC
:0C15C400159781E015968C9380E0089547
:1015D000A0E0B0E0EEEEFAE00C940F0B6C01EB0132
:1015E0008A017B01E40EF51ECE15DF0541F08991DD
:1015F000B601082E000C990B0E94BE06F5CFC8015B
:0A160000CDB7DEB7E8E00C94580BFC
:10160A002F923F924F925F926F927F928F929F9208
:10161A00AF92BF92CF92DF92EF92FF920F931F93F6
:10162A00CF93DF93CDB7DEB7CA1BDB0BCDBFDEBFCF
:02163A00099411
:10163C00A0E0B0E0E4E2FBE00C94150BAE014B5FD4
:10164C005F4FFA0161917191AF01E0915D40F091B2
:10165C005E40808191810E94360BE2E00C945E0B1F
:10166C00A2E0B0E0ECE3FBE00C94130B8C0149839B
:10167C005A83AE014F5F5F4F0E949808F80120819A
:10168C0024FF02C08FEF9FEF2296E4E00C945C0BDA
:10169C002A88398848885F846E847D848C849B84F6
:1016AC00AA84B984C884DF80EE80FD800C811B8104
:1016BC00AA81B981CE0FD11DCDBFDEBFED0108953A
:1016CC00E0E0F9E083818E7F8383108212828EE0CA
:1016DC008683178210861582148281EC838381E0C5
:0C16EC00858310925B4010925C400895D2
:1016F80080912840811108C090910509937081E07C
:0E170800913019F480E001C081E081700895F5
:10171600FC01AF014F5F5F4F2081222311F0FA01D8
:0C172600F8CF9F01281B390BC901089562
:1017320040E068ED80E191E00E94140CE0E1F1E00C
:0A17420012821382789480E008956B
:10174C00CF93C82F0E94080C8823E1F3C093420862
:08175C0080E090E0CF910895B8
:10176400E0E0F9E083818E7F8383838181608383DA
:081774001092284080E0089566
:10177C000E9455070E94C7030E94660B0E942D0908
:06178C000E94990B089574
:10179200EC010E94310C0E94300CCE010E94320CEE
:0617A200CE010E94230CA1
:1017A8008091294090912A40880F81608093070991
:0417B80084E008952C
:1017BC008091294090912A40880F8093070983E0FB
:0217CC0008957E
:1017CE00E0915D40F0915E40608171810E94CC0895
:0217DE0008956C
:1017E0009C01215631092A31310510F48F75992752
:0217F00008955A
:1017F2009C01215431092A31310508F4806208958F
:0E1802001092284081E08093050988E0089547
:0C1810008091440885FB882780F908952A
:0C181C0080EC809305090E94B20B089537
:0A1828001BBEFC0164BF408308955D
:0A1832008F938FEF8BB98F911895FB
:06183C000E94CA0A089593
:041842000C94000002
:041846000E949C0060
:02184A000895FF
:02184C000895FD
:02184E000895FB
:021850000895F9
:021852000895F7
:021854000895F5
:021856000895F3
:021858000895F1
:02185A000895EF
:02185C000895ED
:02185E000895EB
:021860000895E9
:021862000895E7
:021864000895E5
:1018660068076C094C836A9074A07AC00080688807
:0618760000846C82008179
:10187C00030000000000000000000000A60B0000A8
:07188C00286E756C6C290049
:06189300286E696C2900BB
:021899005F40AE
:02000004008278
:090000000000000000C00800002F
:00000001FF
