:100000000C9469000C9402100C9402100C940210D1
:100010000C9402100C9402100C9402100C94021018
:100020000C94F00A0C9402100C9402100C94021020
:100030000C9402100C9402100C9402100C940210F8
:100040000C9402100C9402100C9402100C940B07E8
:100050000C9402100C9402100C9402100C940210D8
:100060000C94D60C0C9402100C9402100C940210F8
:100070000C9402100C9402100C94FA0F0C940210C1
:100080000C9402100C9402100C9402100C943A0C74
:100090000C9402100C9402100C9402100C94021098
:1000A0000C9402100C940210400040028040024068
:1000B0002800202840284036804036404300204E0B
:1000C0004043405D80405D405F00205B405F406C8E
:1000D0008000809101108F7C8060806898ED94BFD3
:1000E0008093011011241FBECFEFCDBFDFE7DEBF2D
:1000F000E8EAF0E040E019C0B791A7913791279165
:10010000079107FD0EC097918791EF01F92FE82F16
:100110000BBF07900D92A217B307D9F7FE011BBEC4
:1001200004C01D92A217B307E1F7E13DF40721F7E0
:0C0130000E94AA030C94A50FF894FFCFC6
:10013C00493243205752495445202D3E2061646476
:10014C00723D307825303258207265673D30782505
:10015C003032582076616C3D25750A0049324320B7
:10016C005752495445204552524F52206164647293
:10017C003D307825303258207265673D3078253017
:10018C003258206572726F723D25640A0049324301
:10019C002077726974652074696D656F7574202899
:1001AC00616464723D307825303258290A00493236
:1001BC0043205245414420202D3E20616464723D11
:1001CC00307825303258207265673D3078253032D2
:1001DC00580A004932432052454144204552524F5F
:1001EC005220616464723D3078253032582072653B
:1001FC00673D307825303258206572726F723D251C
:10020C00640A0049324320726561642074696D652B
:10021C006F75742028616464723D307825303258D3
:10022C00290A00493243205245414420203C2D20CC
:10023C00616464723D307825303258207265673DB8
:10024C003078253032582076616C3D25750A00498E
:10025C00324320534C415645204E4F5420464F5567
:10026C004E4420617420616464723D3078253032D4
:10027C00580A0049324320534C41564520455252AE
:10028C004F5220616464723D3078253032582065BD
:10029C0072726F723D25640A0049324320534C41FF
:1002AC00564520464F554E4420617420616464725B
:1002BC003D3078253032580A00493243204255539C
:1002CC00204552524F523A206B6F7274736C7569A1
:1002DC0074696E67206F66206D6565726465726502
:1002EC00206D61737465727321006D617374657236
:1002FC0020676573746172740069646C6520656E47
:10030C007472790073746F667A756967656E2065AF
:10031C006E747279006F706C6164656E20656E74BA
:10032C007279006572726F7220656E747279006EEC
:0A033C006F6F6420656E7472790023
:10034600DD0FB00FBA0FB90D570AFF0FE40F660E97
:02035600760F20
:10035800AEE0B0E0E2EBF1E00C94D80E4C016B019A
:1003680019821A828FEF9FEF8B839C831D821E82D6
:100378004F83588729873A87A12CB12CD6016D90D5
:100388007C90F301EA0DFB1D808181110FC0D6011D
:10039800ED93FC938081853209F0D3C13F01BFEF13
:1003A8006B1A7B0AF6016082718219C0853279F373
:1003B800B401082E000C990B0E94A40A4FEFA41A4E
:1003C800B40ADCCF8C32ACF08D32F9F489819A8191
:1003D800816089839A833196D601ED93FC93D60187
:1003E800ED91FC9180818B3269F789819A818460D3
:1003F800F0CF803221F489819A818860EACF8332F4
:1004080051F489819A818061E4CF803321F4898114
:100418009A818260DECFB701C6010E94610D8D838B
:100428009E8397FF0BC029813A81B1E02B2729834E
:100438003A839195819591098D839E8389819A81CB
:1004480080FF03C08D7F89839A83D601ED91FC914B
:10045800119780818E3249F43196ED93FC93B70160
:10046800C6010E94610D8B839C83C6010E94460EC3
:10047800582ED601ED91FC918081082E000C990B25
:100488000E94D50F893609F443C084F4833609F4F1
:1004980002C134F4853209F427C18136E1F030C154
:1004A8008436B1F188360CF4D9C02AC1803709F4F2
:1004B8009AC03CF48E3609F4BCC08F3609F461C08A
:1004C8001FC1853709F440C0883709F476C08337DF
:1004D80009F016C1F3C0652D70E0A701CE010B9697
:1004E8000E940000892B09F426C1D601ED91FC91E8
:1004F8001197CF0101968D939C932081AE01455FA2
:100508005F4FBE016F5F7F4FC4010E94000010C1A2
:10051800652D70E0970141E050E0CE010B960E94F6
:100528007F08892B09F407C1F60180819181019622
:1005380080839183AE01455F5F4FBE016F5F7F4F40
:10054800C4010E940D08F4C0652D70E0970140E0D9
:1005580050E0CE010B960E947F08892B09F4EBC06E
:10056800D6018D919C91119701968D939C93AE0124
:10057800455F5F4FBE016F5F7F4FC4010E94830BD1
:10058800D7C0652D70E0970140E050E0CE010B9692
:100598000E947F08892B09F4CEC0F60180819181E1
:1005A800019680839183AE01455F5F4FBE016F5F07
:1005B8007F4FC4010E94A909BBC0652D70E0970157
:1005C80040E050E0CE010B960E947F08892B09F489
:1005D800B2C0D601ED91FC911197CF0101968D9390
:1005E8009C9320811CC0970140E050E060EF70E0D0
:1005F800CE010B960E947F08892B09F49CC0F60156
:10060800808191810196808391838B859C85892B3C
:1006180029F420E030E04DE350E484C028E7AE013F
:10062800455F5F4FBE016F5F7F4FC4010E94910518
:100638007FC0A501400F511F652D70E09701CE01C5
:100648000B960E940000892B09F475C0D6018D9184
:100658009C91119701968D939C9373C0652D70E0C2
:10066800A701CE010B960E940000892B09F463C0F4
:10067800D601ED91FC911197CF0101968D939C9332
:100688002081AE01455F5F4FBE016F5F7F4FC401A0
:100698000E9400004DC0B0E85B124DC0F601808199
:1006A8009181019680839183D701ED91FC911197F7
:1006B800CF0102968D939C93808120C0B0E85B1295
:1006C8003AC0F60180819181019680839183D70198
:1006D800ED91FC911197CF0102968D939C934081E7
:1006E800518120E030E01EC0B0E85B1224C0F60162
:1006F800208131812F5F3F4F208331838B870DC04D
:1007080085E28B87D6016D927C9219821A821D82AE
:100718001E828FEF9FEF8B839C8321E030E0AE0138
:10072800455F5F4FBE016F5F7F4FC4010E948F0D11
:100738008A0D9B1D07C0F6018081918101968083F7
:0C0748009183C5012E96EFE00C94210F68
:100754000E949A0F80E88093050486EF92E80E9435
:10076400C30FC5E0D7E00E948E0F81E00E94020A09
:1007740082E00E94020A83E00E94020A84E00E944E
:10078400020A60E081E00E94920780936B4062E07D
:1007940081E00E94920780936A4060E082E00E94B8
:1007A40092078093694062E082E00E9492078093FE
:1007B400684063E082E00E9492078093674060E0B3
:1007C40083E00E9492078093664060E084E00E9488
:1007D40092078093654090916B409A3051F020913C
:1007E40066402A3031F0309169403A3011F08A3055
:1007F400B1F4C093634080916440823009F4CEC068
:1008040038F4882309F462C0813009F484C058C1E3
:10081400833009F426C1843009F4F7C051C1813012
:1008240031F431E030936340233051F404C082301A
:1008340011F0233019F422E020936340833011F047
:10084400933019F423E020936340943011F490938F
:1008540063408430A9F4D093634080916440823033
:1008640009F49CC030F48823B9F1813009F453C0F1
:1008740027C1833009F4F5C0843009F4C6C020C10F
:1008840080916440823009F489C030F4882359F09F
:10089400813009F440C014C1833009F4E2C08430CB
:1008A40009F4B3C00DC180916340833049F08530B1
:1008B40069F0813089F480936140109263400EC1E5
:1008C40082E0809361401092634008C183E080938A
:1008D40061401092634002C180916240813069F0AE
:1008E40018F08230A9F0ECC085E093E80E94C30FB1
:1008F4000E94010E81E0809362409091614080915A
:100904006440981709F4DCC082E080936240D8C048
:1009140010926240D5C080916340833071F018F426
:10092400823031F01CC08530A1F0863061F017C0F0
:100934001092614010926340DCC082E08093614079
:1009440010926340D6C084E080936140109263406B
:10095400D0C083E08093614010926340CAC080910C
:100964006240813069F018F08230A9F0A9C080E1BA
:1009740093E80E94C30F0E94A10E81E0809362401D
:100984009091614080916440981709F499C082E085
:100994008093624095C01092624092C080916340FF
:1009A400843049F0853061F0813081F48093614076
:1009B40010926340A9C01092614010926340A4C099
:1009C40083E080936140109263409EC080916240B6
:1009D400813069F018F08230A9F072C081E293E8A6
:1009E4000E94C30F0E94BB0E81E0809362409091ED
:1009F400614080916440981709F462C082E080935A
:100A040062405EC0109262405BC080916340873058
:100A140061F4109261401092634080916240813091
:100A2400C9F058F08230D1F04BC0809162408130DF
:100A340059F018F0823091F043C08FE293E80E949D
:100A4400C30F81E080936240909161408091644043
:100A54009817B1F182E08093624032C010926240F4
:100A64002FC080916240813069F018F0823031F1FA
:100A740027C08BE393E80E94C30F0E94DD0D81E041
:100A8400809362402FE78AE196E0215080409040B5
:100A9400E1F700C000002FE78AE196E02150804092
:100AA4009040E1F700C00000909161408091644063
:100AB400981731F082E08093624002C01092624045
:100AC40080916140809364402FE788E391E0215056
:100AD40080409040E1F700C0000045CE8091624024
:100AE400813009F411CF08F4FFCE823009F410CF1D
:100AF400E7CF80916240813009F449CF08F437CFC1
:100B0400823009F448CFDCCF80916240813009F40F
:0E0B140075CF08F463CF823009F474CFD1CFCF
:100B2200AFE0B0E0E7E9F5E00C94D50E1C016B01F3
:100B320049835A832B83FB01828193818480958030
:100B420000811181A680B78097FD02C00D7F02C08F
:100B520081E090E0E981FA81408051806280738077
:100B62009801207133272C833D83740104FF08C050
:100B7200411451046104710419F032E0E31AF108DE
:100B8200F801E870FF27EE83FF8303FF03C0F1E063
:100B9200EF1AF108F6010084F185E02D3197EE8716
:100BA200FF87EA0DFB1D10829C012E193F09288741
:100BB2003987C801827099278A879B87EB818E2F9C
:100BC200EE0F990B9C01215431092C873D872E850C
:100BD2003F852230310530F48C819D81892B09F0CB
:100BE20042C05CC0411451046104710461F18E85FC
:100BF2009F8501978E879F87C2018F7099278A30C0
:100C0200910514F4C09602C0895A9F4FEC85FD8568
:100C12007A9748F49C012062215631092A31310524
:100C220010F40E94CC0FEE85FF85EA0DFB1D808338
:100C3200F1E0EF1AF10884E07694679457944794B0
:100C42008A95D1F7C4CF888599858E0D9F1D181678
:100C520019066CF21E141F040CF0BECFEA85FB8548
:100C6200EF2B29F6B9CFE981FA8180819181A281A6
:100C7200B381892B8A2B8B2B89F0EE85FF85EA0DB8
:100C8200FB1D31972B8120838E859F8502978E874E
:100C92009F87FC01EA0DFB1D80E38083EE81FF81CB
:100CA200EF2B59F02E853F85215031092E873F8742
:100CB200F901EA0DFB1D80E28083F6014085518532
:100CC200415051092E853F85421B530BB9016A0DD4
:100CD2007B1D9401C1010E94CA0B9C01F10180811C
:100CE200918190FF06C0F60182819381821793075A
:0C0CF2000CF4C9012F96E2E10C941E0FD7
:100CFE00CF93DF9380E094E020E2FC012483C0E4F4
:100D0E00D4E01C82A0E6B4E014961C92149740EA3C
:100D1E0054E021E0FA01248330EAFC01308318828A
:100D2E0038E03C93FA012083FC01108A118A128A62
:100D3E00138A148A158A168A178A188A198A1A8AA1
:100D4E001B8A1C8A1D8A1E8A1F8A50961C925097D7
:100D5E0051961C92519752961C92529753961C92F2
:100D6E00539754961C92549755961C925597569697
:100D7E001C92569757961C92FA01108A118A128A63
:100D8E00138A148A158A168A178AE0EEF5E0118600
:100D9E001182108214821682178210861582128298
:100DAE00128686E090E1809353409093544087E002
:100DBE0090E1809351409093524088E090E180936F
:100DCE004F409093504089E090E180934D40909336
:100DDE004E408AE090E180934B4090934C408BE0E4
:100DEE0090E18093494090934A408CE090E180934B
:100DFE004740909348408DE090E18093454090931A
:080E0E004640DF91CF910895E9
:100E16001F920F920FB60F9211240BB60F922F93BB
:100E26003F934F935F936F937F938F939F93AF936C
:100E3600BF93CF93DF93EF93FF93809105098C7156
:100E460009F447C08091050982FD04C08091050917
:100E560083FF0AC0E8E2F0E486E0858783E08487C2
:100E66008CE0809305091DC080910709882359F0FD
:100E76008091050984FF07C0E8E2F0E485E08587F4
:100E860081E084870EC080910809882351F0809103
:100E9600050984FF06C0E8E2F0E485E0858782E084
:100EA6008487C8E2D0E4ED85F0E0EE0FFF1FEA5B31
:100EB600FC470190F081E02D09958D878C8588236C
:100EC600C9F0E0914340F0914440309799F009957C
:100ED60011C080910509807E69F0C8E2D0E4ED85F5
:100EE600F0E0EE0FFF1FEA5BFC470190F081E02D7A
:100EF60009958D87FF91EF91DF91CF91BF91AF91CA
:100F06009F918F917F916F915F914F913F912F911B
:0E0F16000F900BBE0F900FBE0F901F901895FE
:100F2400CF92DF92FF920F931F93CF93DF9300D062
:100F3400CDB7DEB7F82E6A831982CF2CD12C1F923D
:100F44006F931F92FF928AEB91E89F938F930E9475
:100F5400EE0E01E010E09E012F5F3F4F41E050E0B4
:100F6400BE016E5F7F4FC6010E94030C0F900F906D
:100F74000F900F900F900F9008E813E10E944C0F10
:100F8400882321F001501109C8F736C00E94F00FE0
:100F9400882389F01F928F938A811F928F931F92C7
:100FA400FF928FED91E89F938F930E94EE0ECDBF39
:100FB400DEBF8FEF26C0012B69F41F92FF928FE0F2
:100FC40092E89F938F930E94EE0E0F900F900F90D4
:100FD4000F9010C089811F928F938A811F928F93E3
:100FE4001F92FF928FE292E89F938F930E94EE0EDE
:100FF400CDBFDEBF898105C00E94F00F882351F365
:10100400C9CF0F900F90DF91CF911F910F91FF9057
:06101400DF90CF9008956B
:10101A00A2E0B0E0E3E1F8E00C94D50E3C016B01EC
:10102A00FB0122813381A480B580808191818983EB
:10103A009A8386809780FA0120803180428053808B
:10104A00B201A10157FE07C044275527BA01421928
:10105A0053096409750937FD03C08D7F89839A8313
:10106A00950157FC05C0898182FD02C083FF02C039
:10107A0021503109CE0101967C010AE010E0C60137
:10108A000E94E70857FC03C0298122FF0AC0019782
:10109A00F401E80FF91F57FC02C02BE209C02DE248
:1010AA0007C023FF06C00197F401E80FF91F20E2E9
:1010BA00208309811A81F6014085518541505109E1
:1010CA00481B590BB401680F791F9501C3010E948F
:1010DA00CA0B9C01F3018081918190FF06C0F60141
:1010EA0082819381821793070CF4C9012296E2E167
:0410FA000C941E0F25
:1010FE00CF93DF93DC01F90168387105F1F05CF4F0
:10110E006138710561F164387105A1F160387105BE
:10111E0009F051C02FC0603C710509F441C0603F19
:10112E007105F1F1603A710509F045C0C081D181B8
:10113E00CE0102968083918325C0C081D181CE01DC
:10114E00029680839183452B39F04881042E000C42
:10115E00550B660B770B1CC0488150E029C0C0812F
:10116E00D181CE01049680839183488159816A8111
:10117E007B810EC0C081D181CE0102968083918386
:10118E00452BA1F048815981052E000C660B770B7B
:10119E004D935D936D937C93139781E090E00DC01A
:1011AE00C081D181CE01029680839183488159817D
:1011BE0060E070E0EDCF80E090E0DF91CF91089598
:1011CE00A0E0B0E0EDEEF8E00C94D70EDC012801C3
:1011DE001696AD90BC901797F7018081918112966B
:1011EE00ED91FC9113971896CD91DC91199721975B
:1011FE00F7FF02C0E1E0F0E0CA0DDB1D18826901C5
:10120E00A1E0B0E08F01021B130B4C01F2E08F2224
:10121E009924052C000C66087708CE018A199B09C3
:10122E00CA15DB0519F1411551056105710589F0E6
:10123E00CB01BA01A30192010E94240ECA01A62F6E
:10124E00B72F605D6A9341E0C41AD108A901BC01B1
:10125E00E4CF98012C0D3D1D121613064CF31C14F1
:10126E001D0434F48114910419F702C080E090E05B
:10127E00AB2B31F4F701208131812F7E2083318316
:0A128E00CDB7DEB7E0E10C94200FAD
:10129800EF92FF920F931F93CF93DF9300D0CDB7B8
:1012A800DEB7F82EE62E69834A83082F10E01F92D6
:1012B8004F931F926F931F928F938CE391E89F93A4
:1012C8008F930E94EE0E42E050E0BE016F5F7F4FA9
:1012D800C8010E94050DCDBFDEBF08E813E10E94DA
:1012E8004C0F882321F001501109C8F721C00E9432
:1012F800F00F882371F01F928F931F92EF921F9225
:10130800FF9288E691E89F938F930E94EE0ECDBFDF
:10131800DEBF012B89F41F92FF9289E991E89F9320
:101328008F930E94EE0E0F900F900F900F9004C0B5
:101338000E94F00F8111DFCF0F900F90DF91CF91B6
:0A1348001F910F91FF90EF900895A0
:10135200A2E0B0E0EFEAF9E00C94D90E4C016B0187
:10136200FB01228133816480758080819181898330
:101372009A83A680B78037FD03C08D7F89839A83C5
:10138200FA014081518162817381CE0101967C0113
:1013920008E010E09301C6010E94E708298124FFBA
:1013A20006C00197F501E80FF91F20E32083298188
:1013B20023FF06C00197F501E80FF91F20E2208301
:1013C20009811A81F6014085518541505109481B16
:1013D200590BB501680F791F9301C4010E94CA0B12
:1013E2009C01F4018081918190FF06C0F601828107
:1013F2009381821793070CF4C9012296EEE00C94B4
:02140200220FB7
:10140400FF920F931F93CF93DF930F92CDB7DEB765
:10141400F82E198240E050E0BE016F5F7F4F90E0EC
:101424000E94050D09E813E10E944C0F882319F06E
:1014340001501109C9F70E94F00F813071F41F9215
:10144400FF928BE592E89F938F930E94EE0E0F908C
:101454000F900F900F9080E021C0882391F01F928D
:101464008F931F92FF928FE792E89F938F930E942E
:10147400EE0E0F900F900F900F900F900F9080E052
:101484000DC01F92FF9285EA92E89F938F930E946A
:10149400EE0E0F900F900F900F9081E00F90DF9160
:0A14A400CF911F910F91FF90089562
:1014AE00CF93DF938091314090913240019731F488
:1014BE00E0E0F9E084818460848305C0E0E0F9E037
:1014CE0084818B7F8483E8E2F0E4818592850197A5
:1014DE0081879287892BB1F0DF01C781D085E0E04B
:1014EE00F9E08085888317968D919C9118970196C7
:1014FE0017968D939C93189784818C7F826084833A
:10150E0084E018C0A8E2B0E41796CD91DC9118974C
:10151E00E0E0F9E08085888317968D919C9118976D
:10152E00019617968D939C9318978481846084837B
:0A153E000E94660EDF91CF91089520
:101548000F931F93CF93DF93DB01109719F48FEF5D
:101558009FEF3DC02D913C91119730FF25C0169605
:101568004D915C91179714962D913C9115974217C0
:10157800530778F41296ED91FC9113978083129695
:101588002D913C9113972F5F3F4F12962D933C93CB
:10159800139716962D913C9117972F5F3F4F1696EC
:1015A8002D933C93179713C01C96ED91FC911D97B2
:1015B800309769F2EB01092F182F0995892B39F615
:1015C8008E819F8101968E839F83812F902FDF913B
:0815D800CF911F910F910895BE
:1015E0001F920F920FB60F9211240BB60F922F93EA
:1015F0003F934F935F936F937F938F939F93AF939B
:10160000BF93EF93FF931B9B05C0E0914F40F09178
:10161000504009951A9B05C0E0914D40F0914E4015
:1016200009951C9B05C0E0914B40F0914C400995F9
:101630001D9B05C0E0914940F0914A4009951F9BD0
:1016400005C0E0914740F091484009958FEF83B97C
:10165000FF91EF91BF91AF919F918F917F916F918A
:101660005F914F913F912F910F900BBE0F900FBE46
:061670000F901F90189579
:1016760040E068ED80E690E00E94F50F40E068EDFE
:1016860081E690E00E94F50F40E068ED88E790E083
:101696000E94F50F4CE068ED88E690E00E94F50F99
:1016A60040E068ED89E690E00E94F50F40E068EDC5
:1016B60080E790E00E94F50F40E068ED8CE790E04F
:1016C6000E94F50F40E068ED82E690E00E94F50F7B
:1016D60040E068ED83E690E00E94F50F40E068ED9B
:1016E60084E690E00E94F50F40E068ED80E890E027
:1016F6000E94F50FE0E6F0E0858181FFFDCF0895B9
:10170600A2E0B0E0E9E8FBE00C94D90E5C016B01C5
:10171600FB01228133818480958080819181898338
:101726009A836680778037FD03C08D7F89839A838D
:10173600FA014081518162817381CE0101967C015B
:101746000AE010E09401C6010E94E70809811A81A7
:10175600F6014085518541505109481B590BB3018B
:10176600680F791F9401C5010E94CA0B9C01F501FF
:101776008081918190FF06C0F60182819381821754
:0E17860093070CF4C9012296EEE00C94220F9A
:10179400A0E0B0E0E0EDFBE00C94DB0E6C015B013B
:1017A4007A01E901480181E08822992400FD03C0FF
:1017B4004217530750F0A701B501C6010E94840ED9
:1017C400EC16FD0610F0C70117C08E010E191F0993
:1017D4000115110541F0B60180E290E00E94A40ACF
:1017E40001501109F5CF8114910429F4A701B50121
:1017F400C6010E94840ECE01CDB7DEB7ECE00C9496
:02180400240FAF
:101806008F929F92AF92BF92CF92DF92EF92FF920A
:101816000F931F93CF93DF935C016B017A0149010C
:101826000E944C0F811115C0C8E2D0E481E0888384
:10183600A982BA828B87CB82DC82ED82FE828F827E
:10184600988609871A871C860E94BA0F8D8781E0C1
:1018560001C080E0DF91CF911F910F91FF90EF9033
:0E186600DF90CF90BF90AF909F908F9008952D
:101874001F920F920FB60F9211240BB60F922F9353
:101884003F934F935F936F937F938F939F93AF9304
:10189400BF93EF93FF93B99B05C0E0915340F09140
:1018A40054400995B89B05C0E0915140F0915240D5
:1018B40009958FEF87BBFF91EF91BF91AF919F91F6
:1018C4008F917F916F915F914F913F912F910F90E5
:0C18D4000BBE0F900FBE0F901F901895D8
:1018E000A2E8B0E0E6E7FCE00C94DB0E5C014A0104
:1018F00069837A83C12CD12CE981FA818081882384
:10190000E9F07401860120E830E0AE014D5F5F4FE1
:10191000BE016F5F7F4FC5010E94AC018C0D9D1D04
:101920008C159D054CF48FE490E0809300409093DB
:1019300001408FEF9FEF03C06C01DECFC601CE5791
:08194000DF4FECE00C94240FD2
:101948000F931F93CF93DF938C010F5F1F4FFC0101
:1019580080816115710519F48FEF9FEF1EC0FB019F
:1019680024853585232BC1F3EB01EC85FD85BE016C
:10197800882339F00995892B79F7F80181918F012E
:10198800F4CF8AE0099521E030E0892B11F420E0BA
:1019980030E088279927821B930BDF91CF911F9105
:0419A8000F910895FE
:1019AC001F920F920FB60F9211240BB60F922F931A
:1019BC003F934F935F936F937F938F939F93AF93CB
:1019CC00BF93EF93FF937B9B05C0E0914540F09153
:1019DC00464009958FEF8FB9FF91EF91BF91AF9171
:1019EC009F918F917F916F915F914F913F912F912B
:0E19FC000F900BBE0F900FBE0F901F9018950E
:101A0A00CF92DF92EF92FF920F931F93CF93DF93C0
:101A1A006C017B018A010E944C0F811115C0C8E23A
:101A2A00D0E481E08883C982DA821B86EB82FC8259
:101A3A000D831E831F82188619861A861C860E94A9
:101A4A00BA0F8D8781E001C080E0DF91CF911F91AD
:0C1A5A000F91FF90EF90DF90CF90089567
:101A6600E0E4F8E08AE890E080879187158280ECD0
:101A7600868383E0878313861486168615868EE012
:101A860090E18093594090935A408FE090E1809383
:101A960057409093584080E190E180935540909351
:101AA600564010925B4010925C40E0915D40F09190
:0C1AB6005E4088E190E4808391830895F5
:101AC200DC01ED91FC91119780818A3221F080E056
:101AD20090E03AE00EC03196ED93FC93DB01ED917C
:101AE200FC911197CF0102968D939C9380819181F5
:101AF2000895ED91FC911197208120532A3068F4CA
:101B0200389FA001399F500D1124CA01820F911DE7
:0C1B12003196ED93FC931197ECCF0895F1
:101B1E00A0E0B0E0E5E9FDE00C94DD0E7C01FB01F8
:101B2E00EA01C901A280B380C480D58000811181F1
:101B3E00209711F4C6E3D0E4009719F4CE010E9469
:101B4E005B0FB7FC04C0A816B90608F4C5019601D0
:101B5E00AC01BE01C7010E94CA0BCDB7DEB7EAE0E9
:041B6E000C94260F9E
:101B720080912D4090912E40892B99F0E8E2F0E47B
:101B820085819681019785839683A381B4818C9107
:101B9200809308098381948101968383948383E0EF
:101BA200089580913340882321F01092334081E0E0
:081BB20008950E94660E0895DB
:101BBA004AE061E081E00E944C0940E061E082E095
:101BCA000E944C0940E061E083E00E944C0942E037
:101BDA0061E084E00E944C094AE061E084E00E94EE
:101BEA004C0945E061E084E00E944C0947E061E06D
:081BFA0084E00E944C090895EB
:101C020040E061E082E00E944C0940E061E083E054
:101C12000E944C0942E061E084E00E944C0945E0E8
:101C220061E084E00E944C0947E061E084E00E94A8
:101C32004C0980916640833029F443E061E084E0FE
:061C42000E944C09089508
:101C4800A1E21A2EAA1BBB1BFD010DC0AA1FBB1FB8
:101C5800EE1FFF1FA217B307E407F50720F0A21B2A
:101C6800B30BE40BF50B661F771F881F991F1A9497
:101C780069F760957095809590959B01AC01BD01C1
:041C8800CF010895EB
:101C8C00CF93DF93EC0190E0E92FF0E0EE0FFF1F14
:101C9C00EE5FFF4B8081811102C081810EC0A88153
:101CAC00B9812C91821305C091811196A883B983B7
:101CBC0001C09F5F9B3040F3892FDF91CF91089536
:101CCC00A0E0B9E014968C911497836014968C93D1
:101CDC001497E8E2F0E410828FEF90E08183928316
:101CEC001382148217821086158680EC15968C93BD
:0C1CFC00159781E015968C9380E0089508
:101D0800A0E0B0E0EAE8FEE00C94DF0E6C01EB0125
:101D18008A017B01E40EF51ECE15DF0541F089919D
:101D2800B601082E000C990B0E94A40AF5CFC80131
:0A1D3800CDB7DEB7E8E00C94280FE9
:101D420041E061E082E00E944C0941E061E083E011
:101D52000E944C0941E061E084E00E944C0944E0A9
:101D620061E084E00E944C0947E061E084E00E9467
:041D72004C0908957B
:101D760040E061E082E00E944C0940E061E083E0DF
:101D86000E944C0942E061E084E00E944C0945E073
:101D960061E084E00E944C0946E061E084E00E9434
:041DA6004C09089547
:101DAA002F923F924F925F926F927F928F929F9261
:101DBA00AF92BF92CF92DF92EF92FF920F931F934F
:101DCA00CF93DF93CDB7DEB7CA1BDB0BCDBFDEBF28
:021DDA0009946A
:101DDC00A0E0B0E0E4EFFEE00C94E50EAE014B5F4A
:101DEC005F4FFA0161917191AF01E0915D40F0910B
:101DFC005E40808191810E94060FE2E00C942E0FD0
:101E0C00A2E0B0E0ECE0FFE00C94E30E8C0149831F
:101E1C005A83AE014F5F5F4F0E94700CF801208116
:101E2C0024FF02C08FEF9FEF2296E4E00C942C0F5E
:101E3C002A88398848885F846E847D848C849B844E
:101E4C00AA84B984C884DF80EE80FD800C811B815C
:101E5C00AA81B981CE0FD11DCDBFDEBFED01089592
:101E6C00E0E0F9E083818E7F8383108212828EE022
:101E7C008683178210861582148281EC838381E01D
:0C1E8C008583109243401092444008955A
:101E980080912840811108C090910509937081E0D4
:0E1EA800913019F480E001C081E0817008954E
:101EB600FC01AF014F5F5F4F2081222311F0FA0131
:0C1EC600F8CF9F01281B390BC9010895BB
:101ED20040E068ED80E191E00E94F50FE0E1F1E081
:0A1EE20012821382789480E00895C4
:101EEC00E0E0F9E083818E7F83838381816083834B
:081EFC001092284080E00895D7
:101F0400CF93C82F0E94EA0F8823E1F3C0934208BD
:081F140080E090E0CF910895F8
:101F1C000E94F00F833039F485EC92E80E94C30FD5
:081F2C0086E0809363400895F4
:101F34000E943B0B0E947F060E94360F0E94330DC5
:061F44000E94690F0895E0
:101F4A00EC010E9412100E941110CE010E9413107F
:061F5A00CE010E940410FC
:101F60008091294090912A40880F816080930709D1
:041F700084E008956C
:101F74008091294090912A40880F8093070983E03B
:021F84000895BE
:101F8600E0915D40F0915E40608171810E94A40CF9
:021F96000895AC
:101F98009C01215631092A31310510F48F75992792
:021FA80008959A
:101FAA009C01215431092A31310508F480620895CF
:0E1FBA001092284081E08093050988E0089588
:0C1FC80080EC809305090E94760F0895BC
:0C1FD4008091440885FB882780F908955F
:0A1FE000E8E2F0E484851486089519
:0A1FEA001BBEFC0164BF4083089594
:0A1FF4008F938FEF8BB98F91189532
:061FFE000E94660E08952A
:042004000C94000038
:042008000E949C0096
:02200C00089535
:02200E00089533
:02201000089531
:0220120008952F
:0220140008952D
:0220160008952B
:02201800089529
:02201A00089527
:02201C00089525
:02201E00089523
:02202000089521
:0220220008951F
:0220240008951D
:0220260008951B
:1020280068076C094C836A9074A07AC0008068883D
:0620380000846C820081AF
:10203E00030000000000000000000000820F0000FE
:07204E00286E756C6C29007F
:06205500286E696C2900F1
:02205B005F40E4
:02000004008278
:090000000000000000C808000027
:00000001FF
